:020000040800F2
:10000000600F002025030008C5030008C70300088F
:10001000CB030008CF030008D30300080000000052
:10002000000000000000000000000000D7030008EE
:10003000D903000800000000DB030008DD0300080E
:100040003F0300083F0300083F0300085D04000869
:100050003F0300083F030008DF0300083F030008D8
:10006000A71500083F0300083F0300083F030008EE
:100070003F0300083F0300083F0300083F03000858
:100080003F0300083F0300083F0300083F03000848
:100090003F0300083F0300083F0300083F03000838
:1000A0003F0300083F0300083F0300083F03000828
:1000B0003F0300083F0300083F0300083F03000818
:1000C0003F0300083F0300083F0300083F03000808
:1000D0003F030008E1030008E30300083F030008B2
:1000E000511500083F0300083F0300083F030008C4
:1000F0003F0300083F0300083F0300083F030008D8
:100100003F0300083F0300083F0300083F030008C7
:100110003F0300083F0300083F0300083F030008B7
:100120003F0300083F0300083F0300083F030008A7
:10013000DFF80CD005F0C6FC004800474903000872
:10014000600F00200CB50020019000906C48006802
:1001500040F480306A49086000BF6948006800F4D4
:10016000003000900198401C0190009818B9019847
:10017000B0F5A06FF1D16248006800F4003010B112
:100180000120009001E0002000900098012843D158
:100190005C48006840F010005A4908600846006852
:1001A00020F0030008600846006840F00200086084
:1001B00053484068524948600846406848600846CD
:1001C000406840F4806048600846406820F47C1035
:1001D00048600846406840F450204860084600687F
:1001E00040F08070086000BF4548006800F0007073
:1001F0000028F9D04248406820F003004049486098
:100200000846406840F00200486000BF3C48406833
:1002100000F00C000828F9D10CBD10B5FFF792FFD3
:1002200010BD10B53648006840F001003449086040
:10023000084640683449084031494860084600682B
:10024000324908402E4908600846006820F48020A2
:1002500008600846406820F4FE0048604FF41F0024
:100260008860FFF7DAFF4FF000602949086010BD91
:1002700010B5002100200022214B5B6803F00C0127
:1002800021B1042906D0082928D107E0214B224CAE
:10029000236027E01F4B204C236023E0184B5B6852
:1002A00003F47010164B5B6803F48032022303EBF7
:1002B000904022B9194B4343174C23600DE0104B7B
:1002C0005B6803F4003323B1144B4343124C2360A7
:1002D00003E0104B4343104C236003E00D4B0E4CE6
:1002E000236000BF00BF064B5B68C3F303130C4CD5
:1002F000E15C094B1B68CB40074C236010BD00003C
:1003000000100240002002400000FFF8FFFFF6FE50
:1003100008ED00E000127A000000002000093D0016
:10032000040000200648804706480047FEE7FEE735
:10033000FEE7FEE7FEE7FEE7FEE7FEE7FEE7FEE795
:10034000230200083101000804F0A2FEFFF769FF54
:1003500000F082FF04F015FF00F00EFF05F01EF81C
:1003600019E00321012000F0CDFF04F0A7FA1422C8
:1003700009A111A004F0A8FB0321002000F0C2FF96
:1003800007E01E2004F0F3FB10B904F0CEFD00E0FE
:1003900000E0F6E700BFE4E7477A586F744F665312
:1003A000473732634978544476636C713130655114
:1003B000536D413D00000000323937313239383257
:1003C00000000000704700BFFEE700BFFEE700BF6F
:1003D000FEE700BFFEE77047704770477047704701
:1003E000704710B51E48008800F00F0018B11C4877
:1003F000001D048831E01A48008800F0200060B336
:100400001748001D048817490868411C154B1960DE
:1004100015490C547B2C02D1012014490870134853
:100420000078012819D112490868411C104B196045
:1004300010490C547D2C03D018460068FF280CD3BB
:1004400000200A49087000F02BFF0948016809489C
:1004500004F0D9FF00200649086010BD7047000075
:10046000004400402C0000206000002028000020F4
:10047000300000206004002031490143314A1160FE
:10048000704770B5002100230F22C47804B32D4CAF
:10049000246804F4E064C4F5E064210AC1F10403B3
:1004A000CA40447804FA03F18478144021430901D6
:1004B000254C0678A155047804F01F050124AC40B2
:1004C00005786D11AD0005F1E025C5F8004109E0A2
:1004D000047804F01F050124AC401C4D0678761109
:1004E00045F8264070BD1A4A0A400243154B1B1FAF
:1004F0001A60704739B1134A121D12680243114B3A
:100500001B1D1A6006E00F4A121D126882430D4B34
:100510001B1D1A607047042808D14FF0E0210969BB
:1005200041F004014FF0E022116107E04FF0E021BB
:10053000096921F004014FF0E022116170470000C9
:100540000000FA050CED00E000E400E080E100E0CE
:1005500080FFFF1F002044490860091D0860091D35
:100560000860091D086041483F4914310860704720
:1005700000213D498279002A3AD00A461268036870
:100580009A430B461A600A1D126803689A430B1DB2
:100590001A60027911440A6803681A430A60324AF1
:1005A0000832126803689A432F4B08331A601A1DE9
:1005B000126803689A432C4B0C331A604279102A54
:1005C0000ED11A1F126803681A43274B08331A60AA
:1005D0001A1D126803681A43234B0C331A600DE08E
:1005E0002149427911440A6803681A430A6005E008
:1005F000027911440A6803689A430A60704700212F
:10060000016001710C21417100218171704716490F
:10061000103109680143144A1032116070470146D5
:100620000020114A143212680A400AB1012000E089
:10063000002070470C4914310860704701460020C3
:100640000022094B1B6803EA0102074B14331B68A5
:100650000B4013B10AB1012000E0002070470249AD
:10066000143108607047000000040140FFFF0F00D4
:1006700010B50446CC48844208D10121042000F082
:100680002DFB0021042000F029FB46E0C7488442EE
:1006900008D10121082000F021FB0021082000F0F2
:1006A0001DFB3AE0C248844208D10121102000F02D
:1006B00015FB0021102000F011FB2EE0BD48844204
:1006C00008D10121202000F009FB0021202000F0AA
:1006D00005FB22E0B848844208D10121402000F007
:1006E000FDFA0021402000F0F9FA16E0B3488442F8
:1006F00008D10121802000F0F1FA0021802000F0D3
:10070000EDFA0AE0AE48844207D10121801500F0DD
:10071000E5FA0021A01500F0E1FA10BD10B50121A5
:10072000084600F0DBFA0021012000F0D7FA10BDE6
:100730002DE9F04102460025002600200023002478
:10074000002791F803C00CF00F0591F803C00CF0DE
:10075000100CBCF1000F03D091F802C04CEA050563
:1007600091F800C0BCF1000F31D0146800202BE0DC
:100770004FF0010C0CFA00F3B1F800C00CEA0306CC
:100780009E4220D183004FF00F0C0CFA03F7BC43BC
:1007900005FA03FC4CEA040491F803C0BCF1280FED
:1007A00006D14FF0010C0CFA00FCC2F814C00AE0AC
:1007B00091F803C0BCF1480F05D14FF0010C0CFAC1
:1007C00000FCC2F810C0401C0828D1D31460B1F856
:1007D00000C0BCF1FF0F34DD546800202EE000F1B2
:1007E000080C4FF0010808FA0CF3B1F800C00CEA4D
:1007F00003069E4221D183004FF00F0C0CFA03F741
:10080000BC4305FA03FC4CEA040491F803C0BCF1B4
:10081000280F05D100F1080C08FA0CF8C2F8148072
:1008200091F803C0BCF1480F07D100F1080C4FF05C
:10083000010808FA0CF8C2F81080401C0828CED332
:100840005460BDE8F0814FF6FF7101800221817094
:100850000421C17070470246002093680B400BB121
:10086000012000E0002070470146886880B2704790
:1008700002460020D3680B400BB1012000E00020AD
:1008800070470146C86880B2704701617047416196
:1008900070470AB1016100E041617047C160704773
:1008A0004FF480320A438261816182618269826988
:1008B000704702460020434B18684FF6807318407B
:1008C00040EA021008433F4B186070473E49C86138
:1008D0007047F0B50A46002300240021002500F0EF
:1008E0000046B6F1004F02D1364EF16901E0354EB7
:1008F0007168C0F3034583B200F44016B6F5401F9B
:1009000008D121F070612F4E766826F070662D4F69
:100910007E6012E000F48016B6F5801F06D1032633
:1009200006FA05F4A14341F0706106E0460D360178
:1009300003FA06F6B14341F0706122B1460D36016B
:1009400003FA06F6314300F00046B6F1004F02D13B
:100950001C4EF16101E01B4E7160F0BD30B500220C
:100960008B071C0F0F2303FA04F2164B08338C106D
:1009700053F824309343134C08348D1044F8253039
:1009800023468C1053F824308C07240F00FA04F40B
:1009900023430C4C08348D1044F8253030BD0A49EF
:1009A000DC3108607047000000080140000C014085
:1009B000001001400014014000180140001C0140DB
:1009C000002001400000014000002042DF48006894
:1009D00040F00100DD49086008464068DC490840F5
:1009E000DA49486008460068DA490840D749086093
:1009F0000846006820F4802008600846406820F41B
:100A0000FE0048604FF41F0088607047CF490968B6
:100A100021F48031CD4A11601146096821F480210A
:100A20001160B0F5803F03D0B0F5802F0ED106E005
:100A3000C649096841F48031C44A116007E0C349DE
:100A4000096841F4A021C14A116000E000BF00BF65
:100A5000704710B501460022002300204A11012AE8
:100A600002D1BA4C236806E0022A02D1B74C236AAD
:100A700001E0B64C636A01F01F02012494401C405F
:100A80000CB1012000E0002010BD38B5002000901E
:100A90000024002500BF3120FFF7DBFF054600984A
:100AA000401C00900098B0F5A06F01D0002DF2D04E
:100AB0003120FFF7CEFF08B1012400E000242046DA
:100AC00038BD01460020A14A106820F0F80040EA35
:100AD000C10010607047A0490860704702460020BE
:100AE0009A4B586820F47C1042EA01031843974B54
:100AF0005860704798490866704701460020934A3D
:100B0000506820F003000843506070478F484068E9
:100B100000F00C007047014600208C4A506820F01D
:100B2000F00008435060704701460020874A506833
:100B300020F4E06008435060704701460020834A7B
:100B4000506820F4605040EAC1005060704729B1FD
:100B50007E4A527A02437D4B5A7204E07B4A527AB3
:100B600082437A4B5A7270477B49D831086070478C
:100B700001460020754A506820F440400843506008
:100B800070470021714A20321170704A82F820109B
:100B9000012802D004280AD104E001216B4A203246
:100BA000117005E00521694A2032117000E000BF94
:100BB00000BF70476949086070476449096A01438A
:100BC000624A11627047654944390860704730B520
:100BD00000210022002400235C4D6D6805F00C010B
:100BE00021B1042905D0082923D105E05C4D056019
:100BF00022E05B4D05601FE0544D6D6805F47012F6
:100C0000524D6D6805F48034022505EB92421CB903
:100C1000544D554305600BE04C4D6D6805F40035AF
:100C20001DB1504D5543056002E04D4D55430560E3
:100C300002E04B4D056000BF00BF444D6D6805F0FC
:100C4000F0010909484D6B5C0568DD4045603F4D8A
:100C50006D6805F4E061090A434D6B5C4568DD4051
:100C600085603A4D6D6805F46051C90A3E4D6B5C74
:100C70004568DD40C560354D6D6805F44041890B20
:100C80003A4D6B5CC568B5FBF3F5056130BD29B124
:100C90002E4A526902432D4B5A6104E02B4A526995
:100CA00082432A4B5A61704729B1284A926902430C
:100CB000264B9A6104E0254A92698243234B9A614C
:100CC000704729B1214AD2690243204BDA6104E01E
:100CD0001E4AD26982431D4BDA61704729B11B4A13
:100CE000D2680243194BDA6004E0184AD2688243A2
:100CF000164BDA60704729B1144A12690243134B4C
:100D00001A6104E0114A12698243104B1A6170475C
:100D100012494039086070470F49C86470470B4951
:100D2000C87170470948406A40F0807007494862BE
:100D3000704701460020054A92680A400AB1012026
:100D400000E000207047014988727047001002409F
:100D50000000FFF8FFFFF6FE00004242800442421E
:100D600000127A0000093D00140000202400002039
:100D700010B50446FB48844209D101218803FFF7DE
:100D8000ADFF00214FF48040FFF7A8FF32E0F648A6
:100D9000844209D101214804FFF7ADFF00214FF43F
:100DA0000030FFF7A8FF25E0F048844209D1012177
:100DB0008804FFF7A0FF00214FF48020FFF79BFF7E
:100DC00018E0EB48844209D10121C804FFF793FFE2
:100DD00000214FF40020FFF78EFF0BE0E54884422E
:100DE00008D101210805FFF786FF00214FF480108C
:100DF000FFF781FF10BD2DE9F04786B005460E468E
:100E00000024A24600BFA1460027B08900B100BF60
:100E10002F462C8A4CF6FF700440F08804432C8245
:100E2000AC894EF6F3100440B088318908437189CB
:100E300008430443AC81AC8A4FF6FF400440B089BC
:100E40000443AC8201A8FFF7C2FEC648874202D124
:100E5000DDF810A001E0DDF80CA0A88900F4004046
:100E600040B10AEBCA0000EB0A1031684900B0FB40
:100E7000F1F807E00AEBCA0000EB0A1031688900BC
:100E8000B0FBF1F86420B8FBF0F004012009642104
:100E900001FB1089A88900F4004040B1322000EB2A
:100EA000C900B0FBF1F000F00700044308E0322075
:100EB00000EB09106421B0FBF1F000F00F000443D7
:100EC0002C8106B0BDE8F0874FF416510160002177
:100ED0008180C18001810C21418100218181704785
:100EE00010B502460020108A4FF2FF0318400B880D
:100EF0004C8823438C882343CC8823431843108297
:100F000010BD0021018041808180C180704721B1E6
:100F1000828942F40052828104E082894DF6FF7397
:100F20001A4082817047F0B5034600240026002550
:100F3000002040F66A17B94200D100BF1846C1F33D
:100F4000421401F01F06012707FA06F5012C01D112
:100F50000C3004E0022C01D1103000E014301AB142
:100F600007682F43076002E00768AF430760F0BDE2
:100F70001AB1838A0B43838202E0838A8B43838284
:100F80007047028A4FF6F0731A400282028A0A43BF
:100F90000282704782894FF2FF731A4082818289F0
:100FA0000A438281704721B1828942F00202828124
:100FB00004E082894FF6FD731A4082817047028AED
:100FC0004FF6DF731A400282028A0A430282704798
:100FD00021B1028A42F48042028204E0028A4BF686
:100FE000FF731A4002827047C1F308028280704783
:100FF00001468888C0F308007047818941F00101EB
:1010000081817047028BD2B20283028B42EA0122B5
:1010100002837047028B02F47F420283028B0A43F1
:101020000283704721B1828A42F02002828204E06A
:10103000828A4FF6DF731A408282704721B1828A1A
:1010400042F01002828204E0828A4FF6EF731A4067
:101050008282704721B1828A42F00802828204E0D3
:10106000828A4FF6F7731A408282704721B18289D3
:1010700042F40042828103E08289C2F30E0282813F
:10108000704721B1828A42F40062828204E0828A3F
:101090004FF2FF731A4082827047828A4FF6FB73C9
:1010A0001A408282828A0A438282704721B1828AF0
:1010B00042F00202828204E0828A4FF6FD731A40F7
:1010C0008282704702460020B1F5007F00D100BF48
:1010D00013880B400BB1012000E00020704701F4A1
:1010E0000072B2F5007F00D100BFCA430280704792
:1010F00070B50246002400230025002040F66A1641
:10110000B14200D100BFC1F3421501F01F03012617
:1011100006FA03F3012D02D19689334006E0022D31
:1011200002D1168A334001E0968A33400C12012620
:1011300006FA04F41688344013B10CB1012000E023
:10114000002070BD10B50022002340F66A14A142B1
:1011500000D100BF0A1201249440A3B2DC430480F2
:1011600010BD00000038014000440040004800402D
:10117000004C00400050004000B587B00121042021
:10118000FFF792FD01214804FFF79BFD0420ADF815
:10119000180018208DF81B0003208DF81A0006A9EE
:1011A0002B48FFF7C5FA0820ADF8180004208DF889
:1011B0001B0006A92648FFF7BBFA4FF4E130029066
:1011C0000020ADF80C00ADF80E00ADF81000ADF841
:1011D00014000C20ADF8120002A91E48FFF70BFE08
:1011E00001211C48FFF793FE012240F225511948C6
:1011F000FFF799FE26208DF8040003208DF80500E6
:1012000002208DF8060001208DF8070001A8FFF7E5
:1012100038F907B000BD2DE9F04107460C461546E8
:1012200040210C48FFF75BFF00260CE014F8011B7F
:101230003846FFF7D9FE00BF40213846FFF742FF8E
:101240000028F9D0761CAE42F0D3BDE8F081000052
:10125000000801400044004008B501214020FFF78C
:1012600023FD2020ADF8000003208DF8020010209F
:101270008DF8030069464548FFF75AFA0121082016
:10128000FFF712FD2020ADF8000003208DF80200CA
:1012900010208DF8030069463D48FFF749FA08BD64
:1012A00010B53CA13E4804F0C5F830B120213848C3
:1012B000FFF7EDFA00203B4908703BA1384804F0E5
:1012C000B9F830B120213148FFF7E1FA00203A495E
:1012D00008703AA1324804F0ADF830B120212C4812
:1012E000FFF7D3FA01202F49087037A12C4804F0EA
:1012F000A1F830B120212548FFF7C7FA01202E4977
:10130000087010BD70B505460C46B5B120212048C7
:10131000FFF7BBFA20211D48FFF7B7FA04F00100E0
:1013200018B120211A48FFF7B2FA04F0020090B178
:1013300020211648FFF7ABFA0DE004F0010018B1C8
:1013400020211348FFF7A1FA04F0020018B1202170
:101350000E48FFF79AFA70BD10B520210C48FFF730
:1013600087FA18B100200F49087002E001200D49EA
:10137000087020210548FFF77BFA18B100200E49BC
:10138000087002E001200C49087010BD00180140EF
:10139000000C01404C454420726564206F6E0000D3
:1013A00060040020340000204C45442067726565CD
:1013B0006E206F6E00000000350000204C45442078
:1013C000726564206F6666004C45442067726565EF
:1013D0006E206F6666000000002107E0002100E03B
:1013E000491C42F6E0629142FAD3401E0028F5D132
:1013F00070471FB501211020FFF756FC4FF46050D5
:10140000ADF80C0003208DF80E0048208DF80F0079
:1014100003A97548FFF78CF901212020FFF744FC50
:101420000420ADF80C0003208DF80E0048208DF844
:101430000F0003A96D48FFF77BF901210846FFF76C
:1014400033FC02210320FFF789FA042001900020D9
:101450008DF808000C208DF8090001208DF80A0095
:1014600001A8FFF785F808208DF8000006208DF808
:10147000010002208DF8020001208DF8030068466B
:10148000FEF7FFFF0B210220FFF768FA4FF4006020
:10149000019000208DF808000C208DF80900012033
:1014A0008DF80A0001A8FFF763F828208DF80000E6
:1014B00006208DF8010000208DF8020001208DF833
:1014C00003006846FEF7DDFF0C210220FFF746FA15
:1014D0004FF48050019000208DF808000C208DF80A
:1014E000090001208DF80A0001A8FFF741F8282023
:1014F0008DF8000006208DF8010001208DF8020013
:101500008DF803006846FEF7BCFF0D210220FFF7AF
:1015100025FA4FF40050019000208DF808000C20AF
:101520008DF8090001208DF80A0001A8FFF720F8C6
:1015300028208DF8000006208DF8010003208DF88A
:10154000020001208DF803006846FEF79AFF1FBDD8
:1015500010B50F20FFF740FF4FF40060FFF76EF863
:10156000012813D1C1022048FFF775F970B94FF473
:1015700080711D48FFF77CF920B120211C48FFF73E
:1015800084F903E020211A48FFF781F94FF4006045
:10159000FFF765F84FF48050FFF761F84FF4005003
:1015A000FFF75DF810BD10B50F20FFF715FF042001
:1015B000FFF744F8012812D104210C48FFF74BF93A
:1015C00068B980210848FFF753F920B12021094864
:1015D000FFF75BF903E020210648FFF758F90420E4
:1015E000FFF73DF810BD000000100140001401405D
:1015F00000180140000C0140FE480068704770B5BB
:1016000004460D462CB9AC4201D0012070BD00202B
:10161000FCE70DB90120F9E705E0207808B90020C2
:10162000F4E7641C6D1C207803F0C0FE06462878A1
:1016300003F0BCFE8642F0D0207803F0B7FE0646E9
:10164000287803F0B3FE301AE0E770B50446204670
:1016500003F018FF451C2846E749096888470646F5
:101660000EB9002070BD2A462146304603F0A4FE84
:101670003046F7E730B9E149DF4A1160E049E14A15
:1016800011607047016809B1016800E0DB49DA4A7E
:101690001160416809B1416800E0D949D94A116037
:1016A00000BFEEE710B52820D349096888470446F3
:1016B0001CB12821204603F0A6FE204610BD70B5BF
:1016C000044622E02568A08900F4807020B9A06853
:1016D00010B1A068FFF7F3FFA08900F4807028B96B
:1016E000206918B1C749206909688847A08900F4B2
:1016F000007028B9206A18B1C249206A0968884771
:101700002046C049096888472C46002CDAD170BDB4
:101710002DE9F04F8BB083468A46002004460546EB
:101720000026B94F0021884689460990012008907B
:101730009AF800002D2802D1B44F0AF1010A9AF854
:101740000000302801D10AF1010A9AF8000031287E
:1017500022DB9AF8000039281EDC00BF1AF8011BB2
:10176000A1F1300003F0C6FF0022A94BCDE906012C
:101770002046294603F04CFFCDE90401DDE90623AC
:1017800003F09FFE04460D469AF80000302803DB64
:101790009AF800003928E1DD9AF800002E2830D1AF
:1017A0009AF8010030282CDB9AF80100392828DC4F
:1017B0000AF1010A00BF1AF8011BA1F1300003F081
:1017C00099FF0022924BCDE906012046294603F0FD
:1017D0001FFFCDE90401DDE9062303F072FE044694
:1017E0000D460022884B4046494603F00BFF8046D9
:1017F00089469AF80000302803DB9AF8000039285F
:10180000D9DD9AF80000652803D09AF80000452831
:1018100023D10AF1010A9AF800002B2802D10AF11B
:10182000010A08E09AF800002D2804D14FF0FF309B
:1018300008900AF1010A08E01AF8010B30380999FA
:1018400001EB810100EB410009909AF8000030287B
:1018500003DB9AF800003928EEDDDDE9082101FB01
:1018600002F003F047FF42464B46CDE9000103F08A
:1018700028FE02460B46CDE902010020644904F02F
:1018800063FF22462B46CDE906013046394603F078
:10189000BFFECDE90401DDE9062303F0B9FE0446ED
:1018A0000D46CBE906452046294603F034FFCBF828
:1018B00014000320CBF80C0050460BB0BDE8F08FAD
:1018C0000146491E41EA610141EAA10141EA2111B3
:1018D00041EA212141EA2141481C70472DE9F041AC
:1018E00004460E460CB1206810B90020BDE8F08116
:1018F000A06806446068B04203DBA1682068084421
:10190000F4E73046FFF7DCFF074638463A490968F6
:10191000884705463DB93B4920680968884700204B
:1019200060602060E2E725B12846D4E9001203F0A8
:1019300043FD344920680968884767602560A068CE
:101940002844D3E770B504460CB1206808B90020DC
:1019500070BDA16820684518284603F093FDA16872
:101960000844F5E72DE9FC4782460E464FF0000992
:10197000DAE90645002213462046294603F0FEFE1A
:1019800013D12EB102213046FFF7A8FF814604E0B3
:1019900002201949096888478146B9F1000F03D030
:1019A0001CA00088A9F80000A0E0DAF8140003F0F9
:1019B000A1FE074622462B4603F024FE21F00041FB
:1019C0000022154BCDE9000103F0D8FE3FD8134AA1
:1019D000134B2046294603F0D1FE38D80022114B84
:1019E0002046294603F0E2FE31D80EB315213046D9
:1019F0001AE00000380000203C000020DD660008EE
:101A00008D660008400000200000F03F0000F0BF9D
:101A100000002440300000000000B03C0000C0FF87
:101A2000FFFFDF410000E0C1FFF758FF814604E0FF
:101A30001520FA49096888478146B9F1000F55D049
:101A4000F7A14846DAF8142004F0B0F84EE02EB1C1
:101A500040213046FFF742FF814604E04020EF4935
:101A6000096888478146B9F1000F3FD020462946D2
:101A700004F09EFD074622462B4603F0C3FD21F0ED
:101A800000410022E74BCDE9000103F077FE0FD8BB
:101A900025F000412746E44AE44B384603F06EFE49
:101AA00006D222462B46E2A1484604F07FF81DE00C
:101AB00025F000412746E04AE04B384603F05EFE41
:101AC00007D325F000410022DD4B384603F06EFEBF
:101AD00006D222462B46DBA1484604F067F805E013
:101AE00022462B46D8A1484604F060F84846BDE897
:101AF000FC87014600220878302806DB0878392860
:101B000003DC08783038024415E00878412806DB09
:101B10000878462803DC0878373802440BE0087858
:101B2000612806DB0878662803DC08785738024409
:101B300001E0002070471201491C0878302806DBBC
:101B40000878392803DC08783038024415E0087832
:101B5000412806DB0878462803DC08783738024439
:101B60000BE00878612806DB0878662803DC087833
:101B70005738024401E00020DCE71201491C0878D4
:101B8000302806DB0878392803DC0878303802442E
:101B900015E00878412806DB0878462803DC087839
:101BA000373802440BE00878612806DB087866289D
:101BB00003DC08785738024401E00020BAE712013C
:101BC000491C0878302806DB0878392803DC0878B7
:101BD0003038024415E00878412806DB08784628AA
:101BE00003DC0878373802440BE00878612806DB0C
:101BF0000878662803DC08785738024401E00020A2
:101C000098E7104696E72DE9F05F8346884608F18D
:101C10000104002798F80000222805D08B48C0F85E
:101C200000800020BDE8F09F04E014F8011B5C294F
:101C300000D1641C2078222804D0207810B1781CB0
:101C40000700F2D1781C7549096888478146B9F1C7
:101C5000000F01D10020E5E708F101044D469EE0A8
:101C600020785C2804D014F8010B05F8010B96E0ED
:101C7000641C2078722818D006DC622809D06628F7
:101C80000BD06E287ED10CE0742812D07528F9D1C3
:101C900013E0082005F8010B7FE00C2005F8010B8C
:101CA0007BE00A2005F8010B77E00D2005F8010B19
:101CB00073E0092005F8010B6FE0601CFFF719FFC6
:101CC0000646241DB6F55C4F02D3B6F5604F00D32F
:101CD00006B962E0B6F5584F1CD3B6F55C4F19D281
:101CE00060785C2802D1A078752800D055E0E01C0F
:101CF000FFF7FFFE8246A41DBAF55C4F02D3BAF58A
:101D0000604F00D349E0C6F30901504661F39F20BC
:101D100000F580360427802E01D2012708E0B6F5B1
:101D2000006F01D2022703E0B6F5803F00D20327FF
:101D30003D44012F20D0022F15D0032F0AD0042FAD
:101D400024D106F0BF0040F08001681E05460170F6
:101D5000B60900BF06F0BF0040F08001681E0546CE
:101D60000170B60900BF06F0BF0040F08001681E98
:101D700005460170B60900BF3548C05D3043C1B2A9
:101D8000681E00E005E00546017000BF00BF3D444D
:101D900003E0207805F8010B00BF00BF641C207829
:101DA000222803D0207800287FF45AAF0020287022
:101DB0002078222800D1641CCBF810900420CBF8A6
:101DC0000C0020462EE72DE9F05F8046894600276B
:101DD000BB46454611E02878002802DD28782028F7
:101DE00005DB2878222802D028785C2801D1012040
:101DF00000E0002040EA0B0B6D1C28780028EAD197
:101E0000BBF1000F3ED1A5EB0807B9F1000F21D0BF
:101E1000F91C4846FFF762FD064620E03C00002022
:101E2000256400000000B03C44F3C2E4E4E9634CE4
:101E3000252E3066000000008DEDB5A0F7C6B03E3F
:101E400065CDCD41256500002566000038000020E5
:101E50004C710008F81CF74909688847064616B90E
:101E60000020BDE8F09F3446222004F8010B4146D3
:101E7000204603F00EFB2220E0550021781C21545F
:101E80003046EEE7B8F1000F16D1B9F1000F05D0DA
:101E900003214846FFF722FD064604E00320E549FA
:101EA0000968884706460EB90020DAE7E2A1304605
:101EB00003F0EFFA3046D4E7454695F800A00DE070
:101EC0005146DEA003F0D4FA08B17F1C03E0BAF15A
:101ED000200F00DA7F1D6D1C95F800A0BAF1000FED
:101EE00002D0781C0700EBD1B9F1000F05D0F91C26
:101EF0004846FFF7F3FC064604E0F81CCD490968A4
:101F0000884706460EB90020ABE7344645462220F6
:101F100004F8010B47E028781F280ADD28782228DA
:101F200007D028785C2804D015F8010B04F8010BC1
:101F300039E05C2004F8010B15F8011B8A460C29D6
:101F400019D006DC082912D0092920D00A2922D16B
:101F500015E00D2917D0222905D05C291BD15C2062
:101F600004F8010B1EE0222004F8010B1AE06220A5
:101F700004F8010B16E0662004F8010B12E06E2055
:101F800004F8010B0EE0722004F8010B0AE0742043
:101F900004F8010B06E05246AAA1204603F006FE13
:101FA000641D00BF00BF28780028B4D1222004F8A7
:101FB000010B002004F8010B304652E770B50446CF
:101FC0000D4629462069FFF7FEFE70BD00E0401C6B
:101FD00020B1017811B101782029F8DD70472DE991
:101FE000F04706460C4620787B2804D097480460CA
:101FF0000020BDE8F0870620F060601CFFF7E6FFD8
:10200000044620787D2801D1601CF2E7FFF74AFBE7
:102010000546B060B06808B90020EAE72046FFF73F
:10202000D5FF804641462846FFF7EDFD0746FFF7FE
:10203000CDFF04460CB90020DBE7286928620020A8
:10204000286120783A2803D0804804600020D0E737
:10205000601CFFF7BBFF80464146284600F09BF816
:102060000746FFF7B3FF04460CB90020C1E732E092
:10207000FFF718FB07460FB90020BAE72F607D6015
:102080003D46601CFFF7A2FF814649462846FFF700
:10209000BAFD8046FFF79AFF04460CB90020A8E776
:1020A000286928620020286120783A2803D06748F0
:1020B000046000209DE7601CFFF788FF81464946C9
:1020C000284600F068F88046FFF780FF04460CB908
:1020D00000208EE700BF20782C28C9D020787D28EA
:1020E00001D1601C85E759480460002081E72DE993
:1020F000F04705460C4620785B2804D0534804601E
:102100000020BDE8F0870520E860601CFFF75EFF57
:10211000044620785D2801D1601CF2E7FFF7C2FA7F
:102120000646A860A86808B90020EAE72046FFF73D
:102130004DFF80464146304600F02DF80746FFF738
:1021400045FF04460CB90020DBE718E0FFF7AAFAC8
:1021500007460FB90020D4E737607E603E46601C1A
:10216000FFF734FF81464946304600F014F88046B8
:10217000FFF72CFF04460CB90020C2E700BF20780F
:102180002C28E3D020785D2801D1601CB9E72F48C6
:1021900004600020B5E770B505460C460CB9002078
:1021A00070BD04222AA1204603F07CF918B9022050
:1021B000E860201DF4E7052227A1204603F072F90C
:1021C00018B90020E860601DEAE7042224A1204637
:1021D00003F068F920B90120E8606861201DDFE79D
:1021E0002078222804D121462846FFF70CFDD7E7A6
:1021F00020782D2805D02078302807DB2078392852
:1022000004DC21462846FFF783FAC9E720785B28DB
:1022100004D121462846FFF76AFFC1E720787B28D2
:1022200004D121462846FFF7DAFEB9E707480460E3
:102230000020B5E73C00002022220000225C080CB0
:102240000A0D0900752530347800000038000020A0
:102250006E756C6C0000000066616C7365000000B8
:1022600074727565000000002DE9F04780460D4648
:1022700016460024FFF716FA07460020FE490860BC
:102280000FB9BDE8F0874046FFF7A0FE81464946FA
:102290003846FFF780FF044624B93846FFF70FFAA7
:1022A0000020EEE766B12046FFF790FE0446207856
:1022B00030B13846FFF703FAEF4804600020E0E74A
:1022C00005B12C603846DCE710B504460022114603
:1022D0002046FFF7C9FF10BD2DE9FF4F89B08846A2
:1022E00016461F4600200890079006904FF0070AF8
:1022F00000250998D0F808900020029001900090E5
:1023000004E00298401C0290D9F80090B9F1000F47
:10231000F7D10298002835D157B116B108F1040061
:1023200000E0032001463846FFF7D8FA069009E09E
:1023300016B108F1040100E003210846CF490968FD
:1023400088470690069818B900200DB0BDE8F08FB8
:10235000069C7B2004F8010B66B10A2004F8010BEF
:10236000002503E0092004F8010B6D1CA8F1010011
:10237000A842F7DC7D2004F8010B002004F8010BD3
:102380000698E2E7002F77D0BD680EB1022000E08A
:10239000012082460AF101013846FFF79FFA044600
:1023A0000CB90020D1E77B2004F8010B16B10A20FC
:1023B00004F8010B00202070B8685044B8600998F8
:1023C000D0F8089008F1010868E0B6B141463846F7
:1023D000FFF784FA04460CB90020B6E7002003900A
:1023E00005E0092004F8010B0398401C03900398B2
:1023F0004045F6DBB8684044B8603946D9F820005B
:10240000FFF7E1FC3846FFF79DFAB8600EB10220F5
:1024100000E00120824651463846FFF75FFA044645
:102420000CB9002091E73A2004F8010B16B10920FD
:1024300004F8010BB8685044B8603B463246414648
:10244000484600F078FA3846FFF77CFAB8600EB1DB
:10245000012000E00020D9F8001009B1012100E0BE
:10246000002100EB010A0AF101013846FFF736FAB4
:10247000044614B9002068E734E0D9F8000010B130
:102480002C2004F8010B16B10A2004F8010B0020DF
:102490002070B8685044B860D9F80090B9F1000FC6
:1024A00093D116B108F1010000E002200146384640
:1024B000FFF714FA04460CB9002046E74EB1002598
:1024C00003E0092004F8010B6D1CA8F10100A842EB
:1024D000F7DC7D2004F8010B0020207038682844C8
:1024E000069005E1029988006449096888470890C8
:1024F000089808B9002028E7029988005F49096810
:1025000088470790079828B95D490898096888475F
:1025100000201AE702988100089802F074FF0298E0
:102520008100079802F06FFF0998D0F8089008F131
:10253000010806B1C2442EE00021D9F82000FFF7BF
:1025400042FC0490079941F8250000233246414699
:10255000484600F0F0F929466D1C0590089A42F8AB
:102560002100049898B1059888B1059802F08AFF77
:102570008346049802F086FF0BEB0001891C16B11C
:1025800008F1020000E000200844824401E001203C
:102590000190D9F80090B9F1000FCDD1019820B980
:1025A00050463649096888470690069808B90120C0
:1025B0000190019818B3002514E0079850F8250001
:1025C00028B1079951F825002D49096888470898CE
:1025D00050F8250028B1089951F8250028490968C4
:1025E00088476D1C02988542E7DB254907980968F2
:1025F000884723490898096888470020A5E67B2179
:10260000069801700698441C16B10A2004F8010BC4
:102610000020207000254FE05EB10020039005E00F
:10262000092004F8010B0398401C039003984045CF
:10263000F6DB079951F8250002F024FF0090079877
:1026400050F825102046009A02F0B6FE0098044487
:102650003A2004F8010B16B1092004F8010B089880
:1026600050F82510204602F014FF089951F8250073
:1026700002F008FF044405E0380000203C00002080
:10268000400000200298401EA84202D02C2004F8EE
:10269000010B16B10A2004F8010B002020700799E5
:1026A00051F82500FE4909688847089951F8250026
:1026B000FB49096888476D1C02988542ACDBF849E4
:1026C000079809688847F6490898096888474EB10D
:1026D000002503E0092004F8010B6D1CA8F101009E
:1026E000A842F7DC7D2004F8010B002004F8010B60
:1026F00006982AE62DE9FF4F85B092461E464FF018
:10270000000B052003900598D0F80880D9460025D5
:1027100000200290019003E009F10109D8F800803F
:10272000B8F1000FF8D1B9F1000F16D12EB1032185
:102730003046FFF7D3F8834604E00320D9490968FF
:1027400088478346BBF1000F03D0D7A1584602F05B
:10275000A0FE584609B0BDE8F08F002E57D0B568EE
:1027600001213046FFF7BAF804460CB90020F1E722
:102770005B202070B068401CB0600598D0F80880DD
:102780002EE0334652460699491C404600F0D3F8E5
:102790003046FFF7D7F8B060D8F80000F0B1BAF1D2
:1027A000000F01D0022000E0012003900399491C92
:1027B0003046FFF793F804460CB90020CAE72C20F6
:1027C00004F8010BBAF1000F02D0202004F8010B2D
:1027D00000202070B16803980844B060D8F80080E9
:1027E000B8F1000F02D002980028CAD0022130466A
:1027F000FFF774F804460CB90020ABE75D2004F83D
:10280000010B00202070306800EB050B91E04FEACF
:102810008900A4490968884707460FB9002099E74D
:102820004FEA8901384602F0EEFD0598D0F808809D
:1028300021E0002352460699491C404600F07BF8EF
:10284000049029466D1C049847F82100049870B143
:10285000049802F017FE801CBAF1000F01D001218C
:1028600000E00021014403980844039001E00120A6
:102870000290D8F80080B8F1000F02D0029800282A
:10288000D7D0029820B987490398096888478346BA
:10289000BBF1000F01D101200290029890B10025F8
:1028A00008E057F8250020B157F825007C49096851
:1028B00088476D1C4D45F4DB3846794909688847DF
:1028C000002047E75B208BF800000BF1010400209B
:1028D0002070002521E057F8250002F0D3FD01907B
:1028E00057F825102046019A02F066FD019804442D
:1028F000A9F10100A8420AD02C2004F8010BBAF17A
:10290000000F02D0202004F8010B0020207057F89F
:1029100025006349096888476D1C4D45DBDB384657
:102920005F49096888475D2004F8010B002004F81E
:10293000010B58460EE72DE9F04104460F4690463C
:102940001D46002614B90020BDE8F081002D49D0B5
:10295000207B072845D2DFE800F0101C04282E3425
:102960003C0005212846FEF7B9FF064626B1AFF226
:102970002071304602F08DFD33E006212846FEF737
:10298000ADFF064626B1AFF23071304602F081FD50
:1029900027E005212846FEF7A1FF064626B1AFF243
:1029A0004071304602F075FD1BE029462046FEF7D7
:1029B000D9FF064615E029462046FFF7FFFA0646EE
:1029C0000FE02B46424639462046FFF793FE064667
:1029D00007E02B46424639462046FFF77DFC064677
:1029E00000BF37E0207B072833D2DFE800F00A1071
:1029F00004161C222A00AFF2A870FEF726FE064637
:102A000027E0AFF2AC70FEF720FE064621E0AFF201
:102A1000B070FEF71AFE06461BE000212046FEF7C6
:102A2000A1FF064615E000212046FFF7C7FA06463B
:102A30000FE00023424639462046FFF75BFE06467C
:102A400007E00023424639462046FFF745FC06468C
:102A500000BF00BF304677E710B5044600230122CF
:102A600019462046FFF767FF10BD10B50446002346
:102A70001A4619462046FFF75EFF10BDFEB5054613
:102A80000C4616462046074909688847009001947D
:102A9000002002906B4632460021284606E00000E6
:102AA000400000203C0000205B5D0000FFF743FF7A
:102AB000FEBD01468A68002001E0401C1268002A21
:102AC000FBD170470246906801E0491E006808B1DA
:102AD0000029FADC704770B505460E46AC6800E088
:102AE00024682CB13146206AFEF789FD0028F7D111
:102AF000204670BD01604860704770B50546FEF71E
:102B0000D1FD04460CB9002070BD2822294620467C
:102B100002F052FC00202062E06840F48070E06027
:102B20000020606020602046EEE770B505460E4646
:102B3000AC6806B970BD0CB9AE6009E000E024686D
:102B400014B120680028FAD131462046FFF7D2FFA1
:102B500000BFEFE770B506460D46144604B970BDD8
:102B6000206A18B1FE49206A096888472846FEF79E
:102B70006CFD206221463046FFF7D7FF00BFEEE72D
:102B800070B506460D46144604B970BDA08900F420
:102B9000007028B9206A18B1F149206A096888478D
:102BA0002562E06840F40070E06021463046FFF79F
:102BB000BCFF00BFE9E770B505460C462046FFF7AD
:102BC0009CFF064631462846FFF7AFFF70BD2DE952
:102BD000F04105460E4614462046FFF78EFF074695
:102BE0003A4631462846FFF7B5FFBDE8F08110B5FB
:102BF00002460B46916801E009685B1E09B1002B93
:102C0000FADC09B9002010BD486810B1D1E9000410
:102C10002060086810B1D1E9004060609068884287
:102C200001D1086890600020086048600846EAE723
:102C300070B504460D4629462046FFF7D8FF0646E4
:102C4000FEF73DFD70BD2DE9F04105460F4600261B
:102C5000AC6801E0761C24682CB13946206AFEF786
:102C6000CEFC0028F6D12CB131462846FFF7BFFF35
:102C7000BDE8F0810020FBE770B504460D4629460B
:102C80002046FFF7E0FF0646FEF719FD70BD2DE96F
:102C9000F04106460F461446B56801E02D687F1ED8
:102CA0000DB1002FFADC2DB921463046FFF73DFF6C
:102CB000BDE8F0812560686860606C60B068A8421B
:102CC00001D1B46001E06068046000BFF0E72DE965
:102CD000F04106460F461446B56801E02D687F1E98
:102CE0000DB1002FFADC0DB9BDE8F0812868206035
:102CF00068686060206808B120684460B068A842D5
:102D000001D1B46001E06068046000206860286060
:102D10002846FEF7D4FC00BFE6E72DE9F041054662
:102D20000E4617464FF00008AC6802E008F10108B3
:102D300024682CB13146206AFEF761FC0028F5D1E9
:102D400044B13046FEF781FC38623A464146284697
:102D5000FFF7BDFFBDE8F08110B5FEF7A3FC044608
:102D60000CB10220E060204610BD10B5FEF79AFCC1
:102D700004460CB10120E060204610BD10B5FEF7FE
:102D800091FC04460CB10020E060204610BD70B5F7
:102D90000546FEF787FC044624B10DB1012000E092
:102DA0000020E060204670BD70B505460E46FEF777
:102DB00079FC044644B10320E060C4E90656284685
:102DC000314602F0A8FC6061204670BD70B5054632
:102DD000FEF768FC04462CB10420E0602846FEF7AC
:102DE00034FC2061204670BD10B5FEF75BFC044644
:102DF0000CB10520E060204610BD10B5FEF752FC76
:102E000004460CB10620E060204610BD2DE9F05FBD
:102E100081468A460025AB46FFF7E6FF06460024BA
:102E200010E059F8240002F065FC0746FFF7BCFFEC
:102E300005460CB9B56003E029465846FFF75AFE2F
:102E4000AB46641C0EB15445EBDB3046BDE8F09F49
:102E50002DE9F05F81468A460025AB46FFF7C4FFA7
:102E60000646002410E059F8240002F073FC0746DF
:102E7000FFF79AFF05460CB9B56003E029465846AE
:102E8000FFF738FEAB46641C0EB15445EBDB304611
:102E9000BDE8F09F2DE9F047074688460025A94682
:102EA000FFF7A2FF0646002410E007EBC400D0E9BC
:102EB00000211046FFF778FF05460CB9B56003E026
:102EC00029464846FFF716FEA946641C0EB1444544
:102ED000EBDB3046BDE8F0872DE9F0470746884632
:102EE0000025A946FFF780FF064600240DE057F8AD
:102EF0002400FFF76BFF05460CB9B56003E02946D7
:102F00004846FFF7F7FDA946641C0EB14445EEDBC9
:102F10003046BDE8F0872DE9F047054689464FF079
:102F2000000815B90020BDE8F087FEF7BBFB04469A
:102F30000CB90020F7E7E86820F48070E060686969
:102F40006061D5E90601C4E90601286970B1286904
:102F5000FEF77BFB2061206940B9204602E00000BB
:102F600040000020FEF7ABFB0020DCE7286A50B1F0
:102F7000286AFEF76AFB2062206A20B92046FEF725
:102F80009EFB0020CFE7B9F1000F01D12046CAE730
:102F9000AF6816E001213846FFF7BDFF064626B9A7
:102FA0002046FEF78CFB0020BDE7B8F1000F05D0EE
:102FB000C8F80060C6F80480B04601E0A660B046DC
:102FC0003F68002FE6D12046ADE7014655E0027884
:102FD000202A01D1401C50E00278092A01D1401C6E
:102FE0004BE002780D2A01D1401C46E002780A2A03
:102FF00001D1401C41E002782F2A0BD142782F2AC0
:1030000008D100E0401C0278002A36D002780A2A53
:1030100033D0F7E702782F2A0ED142782A2A0BD133
:1030200000E0401C02782AB102782A2AF9D14278BD
:103030002F2AF6D1801C20E00278222A19D110F81C
:10304000012B01F8012B0AE002785C2A03D110F869
:10305000012B01F8012B10F8012B01F8012B02784C
:1030600012B10278222AEFD110F8012B01F8012BBE
:1030700003E010F8012B01F8012B0278002AA6D1F9
:103080000A707047704702B90022704710B51020CF
:1030900003F024FB04464FF4807003F01FFB206014
:1030A00000206060A0604FF48070E060204610BD9A
:1030B00070B5044620680568284603F0E7FA2068E2
:1030C00003F0E4FA0020206070BD2DE9F0410446D1
:1030D0000E46E5680027B84605E06D00781C0746F7
:1030E000202800DD03E06068281AB042F5D300BF55
:1030F000202F03DD4FF0FF30BDE8F081E068A842EB
:103100000ED2284603F0EAFA80464046D4E900127F
:1031100002F052F9206803F0B9FAC4F80080E560C3
:103120000020E9E702469068401C5368984202D9A3
:103130004FF0FF30704793681068C05C087090686B
:10314000401C90600020F5E770B504460E46154619
:10315000A06828446168884202D94FF0FF3070BDF2
:10316000284603F0BBFA3060A3682268D1182A46CB
:10317000306802F021F9A0682844A0600020EEE742
:1031800030B502469068801C5568A84202D94FF0BD
:10319000FF3030BD95681068435D9068401C9060BA
:1031A00095681068445D9068401C906004EB0320B3
:1031B00008800020EDE730B5024600240023906827
:1031C000001D5568A84201D9581E30BD07E095681A
:1031D0001068405D40EA03239068401C90602046E0
:1031E000641C0428F3DB0B600020EEE7F8B504460E
:1031F0000D4600200090002669462046FFF7C0FFDC
:1032000006460EB13046F8BDBDF80010A06808446F
:103210006168884202D94FF0FF30F4E7BDF8001032
:10322000481C03F05BFA2860BDF80010491C2868B0
:1032300002F0E9F8A3682268D118BDF800202868D8
:1032400002F00AF9BDF80010A0680844A060002050
:10325000D9E72DE9F84180460C46012600270020D9
:103260000090206000BF69464046FFF75BFF0546BF
:1032700015B12846BDE8F8819DF8001001F07F01E6
:10328000206801FB06002060F6017F1C042F02D994
:103290004FF0FF30EEE79DF8000000F080000028BE
:1032A000E1D100BFE6E770B504460D46A16809B953
:1032B000012100E000210846FFF7E4FE012120463D
:1032C000FFF703FF10B14FF0FF3070BDD4E90001EC
:1032D00045546068401C60600020F6E770B5044605
:1032E0000E461546A16809B9012100E000210846F3
:1032F000FFF7C8FE29462046FFF7E7FE10B14FF062
:10330000FF3070BDD4E9001288182A46314602F019
:1033100053F86068284460600020F2E770B5054605
:103320000C46A96809B9012100E000210846FFF711
:10333000A9FE210A2846FFF7B6FF20B9E1B22846C8
:10334000FFF7B1FF08B1012070BD0020FCE770B5A8
:1033500005460C46A96809B9012100E0002108468C
:10336000FFF790FE210E2846FFF79DFF80B9C4F3BA
:1033700007412846FFF797FF50B9C4F307212846B5
:10338000FFF791FF20B9E1B22846FFF78CFF08B1A3
:10339000012070BD0020FCE770B504460D460026F4
:1033A000A16809B9012100E000210846FFF76AFE83
:1033B000284602F067F886B231462046FFF7AEFF96
:1033C00028B9324629462046FFF788FF08B1012078
:1033D00070BD0020FCE770B502460C462146002374
:1033E000002596680EB9012600E000263046FFF75A
:1033F00049FE00BF01F07F05C90909B145F080050C
:103400005668701C5060106885555B1C09B1052B0F
:10341000F0DB052B01D0012600E000263046FFF747
:1034200031FE002070BD2DE9F04104460D46FFF746
:103430002DFE064610213046FFF735FF204602F0EC
:1034400021F800F10B08284602F01CF8801C08EB5C
:10345000000739463046FFF7BEFFFEA13046FFF7B2
:103460009BFF01213046FFF71EFF40213046FFF74A
:103470001AFF80213046FFF751FF21463046FFF703
:103480008BFF29463046FFF787FF3046BDE8F081C5
:103490002DE9F04104460D460026FFF7F7FD0646EC
:1034A00010213046FFF7FFFE204601F0EBFF00F150
:1034B0000D08284601F0E6FF801C08EB000739469E
:1034C0003046FFF788FFE3A13046FFF765FF012193
:1034D0003046FFF7E8FEC0213046FFF7E4FE8021CA
:1034E0003046FFF71BFF00213046FFF7DCFE0021CE
:1034F0003046FFF7D8FE21463046FFF74DFF2946FC
:103500003046FFF749FF3046BDE8F0812DE9F04134
:1035100004460E4615460027FFF7B8FD0746302142
:103520003846FFF7C0FE204601F0ACFF801C00EBE0
:10353000050841463846FFF74EFF21463846FFF75B
:103540002BFF2A4631463846FFF7C8FE3846BDE80D
:10355000F0812DE9F04704460D4616464FF000096C
:10356000CA460027B846FFF791FD81462846FFF777
:1035700073FA0746384601F085FF804680214846A9
:10358000FFF791FEA4B1204601F07CFF001D08F179
:10359000020100EB010A51464846FFF71CFF80215B
:1035A0004846FFF780FE21464846FFF7F5FE09E052
:1035B00008F1040A51464846FFF70DFF002148462E
:1035C000FFF771FEF1B24846FFF76DFE39464846F7
:1035D000FFF7E2FE384603F059F84846BDE8F087A9
:1035E0002DE9FF4F9FB00C4615461E462C9F4FF00D
:1035F0000008C146C246C34600201D90642104A8AD
:1036000001F001FF00200390FFF7F7FB804647B170
:103610003846FFF7DBFB02468FA102904046FFF7DA
:1036200099FAFFF7E1FB8146FFF7E7FB8246204668
:10363000FFF7CCFB02468AA102905046FFF78AFAB8
:10364000FFF7D2FB8346FFF7D8FB1D90324664217B
:1036500004A8FFF718FD04A8FFF7B8FB024681A1F4
:1036600002901D98FFF776FA284602F043F8CDE95C
:103670000001FFF799FB02467BA102901D98FFF71E
:1036800069FA58461D99FFF750FA5A4678A15046F4
:10369000FFF760FA51464846FFF747FA4A4677A1D6
:1036A0004046FFF757FA012241461F98FFF751FFA6
:1036B00003904046FEF703F8039823B0BDE8F08F6F
:1036C0002DE9FF5F9CB00C46174698462B9D0026BF
:1036D000B146B246B34600201B90642102A801F017
:1036E00092FE00200190FFF788FB064645B1284670
:1036F000FFF76CFB024658A100903046FFF72AFA0C
:10370000FFF772FB8146FFF778FB82462046FFF702
:103710005DFB024652A100905046FFF71BFAFFF7EF
:1037200063FB8346FFF769FB1B90642102A82A9A7A
:10373000FFF7A9FC02A8FFF749FB024649A1009048
:103740001B98FFF707FA38464146FFF72DFB024664
:1037500045A100901B98FFF7FDF958461B99FFF70C
:10376000E4F95A4642A15046FFF7F4F9514648465B
:10377000FFF7DBF94A4641A13046FFF7EBF901229A
:1037800031461C98FFF7E5FE01903046FDF797FFA4
:10379000019820B0BDE8F09F2DE9FF4F9DB00C4689
:1037A00015461E462A9F4FF00008C146C246C34632
:1037B00000201C90642103A801F025FE0020029047
:1037C000FFF71BFB804647B13846FFF7FFFA02467A
:1037D00021A101904046FFF7BDF9FFF705FB8146A7
:1037E000FFF70BFB82462046FFF7F0FA02461CA1CA
:1037F00001905046FFF7AEF9FFF7F6FA8346FFF760
:10380000FCFA1C903246642103A8FFF73CFC03A895
:10381000FFF7DCFA024613A101901C98FFF79AF912
:103820002846FFF7D3FA02460FA101901C98FFF734
:1038300091F958461C99FFF778F95A460CA1504661
:10384000FFF788F951464846FFF76FF94A460BA142
:10385000404619E045445000746F6B656E000000EF
:10386000696400006174000076616C756500000099
:1038700064617461706F696E747300006461746177
:1038800073747265616D7300FFF764F9012241463C
:103890001D98FFF75EFE02904046FDF710FF02986C
:1038A00021B0BDE8F08F2DE9F05F06468946144649
:1038B0000025AA46FFF7A1FA0546204601F01AFFA7
:1038C0000746FFF771FA83465A4649462846FFF7EE
:1038D00041F9032229463046FFF73BFE824628463F
:1038E000FDF7EDFE5046BDE8F09F2DE9F84F074685
:1038F000884615461E46DDE90AAB0024A146FFF7BF
:103900007CFA044628463146FFF74EFA0246414605
:1039100000902046FFF71EF9032221463846FFF7A4
:1039200018FE81462046FDF7CAFE4846BDE8F88FDE
:103930002DE9F05F06460F4614469B46DDF82890B9
:103940000025A846FFF759FA05462046FFF73EFA3C
:103950008246524639462846FFF7FCF8032229469C
:103960003046FFF7F6FD80462846FDF7A8FE4046A4
:10397000BDE8F09F2DE9FF4F9BB0824614461D46DF
:103980000026B146642102A801F03DFD002001900F
:10399000FFF733FA06462A46642102A8FFF773FBB5
:1039A000FFF72BFA8146204601F0A4FE0746FFF7F9
:1039B000FBF983465A4602A94846FFF7CBF84A4628
:1039C00030461C99FFF7C6F8042231465046FFF7EF
:1039D000C0FD01903046FDF772FE01981FB0BDE8B2
:1039E000F08F2DE9F04F9BB08046894616461F4662
:1039F000DDF890A000240025642102A801F003FD59
:103A0000A346FFF7FAF904465246642102A8FFF7DD
:103A10003AFBFFF7F2F9054630463946FFF7C4F99D
:103A2000024602A901902846FFF794F82A46494623
:103A30002046FFF78FF8042221464046FFF789FD14
:103A400083462046FDF73BFE58461BB0BDE8F08F8D
:103A50002DE9F04F9BB08046894614461D46DDF89F
:103A600090B000260027642102A801F0CCFCB246E9
:103A7000FFF7C3F906462A46642102A8FFF703FBB5
:103A8000FFF7BBF907462046FFF7A0F9024602A957
:103A900001903846FFF75EF83A4649463046FFF750
:103AA00059F8042231464046FFF753FD824630461E
:103AB000FDF705FE50461BB0BDE8F08F2DE9F84F2D
:103AC00005460E4617469846DDE90A944FF0000A6F
:103AD000012D04D0032D0BD0042D1BD111E04B463A
:103AE0004246394630460094FFF77AFD824612E09E
:103AF0004B464246394630460094FFF7D4FE824694
:103B000009E04B464246394630460094FFF732FF03
:103B1000824600E000BF00BF5046BDE8F88F2DE9A7
:103B2000FC5F804689469246DDE90C67DDE90E457B
:103B30004FF0000BB8F1010F06D0B8F1030F0DD014
:103B4000B8F1040F1ED113E032463B4651464846B9
:103B5000CDE90045FFF7B4FD834614E032463B460D
:103B600051464846CDE90045FFF7BFFE83460AE0CF
:103B700032463B4651464846CDE90045FFF731FF06
:103B8000834600E000BF00BF5846BDE8FC9F2DE91A
:103B9000F84F05460E4617469846DDE90A944FF061
:103BA000000A012D04D0032D0BD0042D1BD111E0F0
:103BB0004B464246394630460094FFF7EDFD8246BB
:103BC00012E04B464246394630460094FFF7B0FEBD
:103BD000824609E04B464246394630460094FFF79C
:103BE00037FF824600E000BF00BF5046BDE8F88FB7
:103BF00038B504460D4669462046FFF7F7FA08B186
:103C0000FE4838BD0098FEF75FFB2860009802F080
:103C10003DFD286810B96FF48060F2E7D4E9012116
:103C2000914201D1012100E000210846FFF72AFA64
:103C30000020E6E72DE9FC5F82460C461546002091
:103C400001900026002780468146009001A9504639
:103C5000FFF7CEFF10B1E948BDE8FC9FAFF2E431B9
:103C60000198FEF738FF064626B13046FEF721FFE1
:103C7000012801D0E148EFE700213046FEF722FF9E
:103C800007460FB9DD48E7E7AFF22C413846FEF7AB
:103C900022FFD0F81080404601F0F4FB00F1010B48
:103CA000584602F01BFD2060404601F0EBFB00F19E
:103CB000010B5A464146206801F07EFBAFF25041AD
:103CC0003846FEF708FF8146B9F1000F04D0484698
:103CD000FEF7EFFE012801D0C848BDE700214846A5
:103CE000FEF7F0FE0090AFF280410098FEF7F3FE81
:103CF000406928600198FDF7E2FC0020ACE72DE95F
:103D0000FC5F82460C4615460020019000260027E5
:103D100080468146009001A95046FFF769FF10B127
:103D2000B648BDE8FC9FAFF2AC410198FEF7D3FE68
:103D3000064626B13046FEF7BCFE012801D0AF484A
:103D4000EFE700213046FEF7BDFE07460FB9AB484E
:103D5000E7E7AFF2F4413846FEF7BDFED0F8108039
:103D6000404601F08FFB00F1010B584602F0B6FC13
:103D70002060404601F086FB00F1010B5A464146A7
:103D8000206801F019FBAFF218513846FEF7A3FE88
:103D90008146B9F1000F04D04846FEF78AFE01289B
:103DA00001D09648BDE700214846FEF78BFE009003
:103DB000AFF24C510098FEF78EFEC1698069C5E9EB
:103DC00000010198FDF77BFC0020AAE72DE9FF4FD9
:103DD00083B00C4615461E46002002900027804600
:103DE00081468246019002A90398FFF701FF18B1AE
:103DF000824807B0BDE8F08FAFF280510298FEF71D
:103E00006AFE074627B13846FEF753FE012801D067
:103E10007A48EEE700213846FEF754FE8046B8F1B6
:103E2000000F01D17548E4E7AFF2CC514046FEF7F0
:103E300052FED0F81090484601F024FB00F1010B2F
:103E4000584602F04BFC2060484601F01BFB00F195
:103E5000010B5A464946206801F0AEFAAFF2F05124
:103E60004046FEF738FE8246BAF1000F04D05046B5
:103E7000FEF71FFE012801D06048BAE70021504636
:103E8000FEF720FE0190AFF220610198FEF723FEBD
:103E90000669304601F0F6FA00F1010B584602F0CF
:103EA0001DFC2860304601F0EDFA00F1010B5A4686
:103EB0003146286801F080FA0298FDF700FC0020E6
:103EC00097E72DE9F84380460C46164699460020B0
:103ED00000900025002769464046FFF789FE10B193
:103EE0004648BDE8F8830098806820B90098FDF73F
:103EF000E6FB4248F5E700988568286A01F0C2FAB7
:103F0000471C384602F0EAFB2060296A3A462068DE
:103F100001F052FA686930600098FDF7D0FB00208C
:103F2000DFE72DE9F84380460C4616469946002007
:103F300000900025002769464046FFF759FE10B162
:103F40002E48BDE8F8830098806820B90098FDF7F6
:103F5000B6FB2A48F5E700988568286A01F092FACE
:103F6000471C384602F0BAFB2060296A3A462068AE
:103F700001F022FAD5E90601C6E900010098FDF733
:103F80009EFB0020DDE72DE9F84F81460C461546E3
:103F90001E46002000900027804669464846FFF7ED
:103FA00027FE10B11548BDE8F88F0098806820B949
:103FB0000098FDF784FB1148F5E700988768386A98
:103FC00001F060FA00F10108404602F087FB206032
:103FD000396A4246206801F0EFF93E69304601F047
:103FE00051FA00F1010A504602F078FB2860304691
:103FF00001F048FA00F1010A524601E000FCFFFF1F
:104000003146286801F0D8F90098FDF758FB0020E8
:10401000C9E72DE9F84380460D461646994600202B
:1040200000900024002769464046FFF7E1FD10B1EB
:10403000F948BDE8F883009884680CB1206A20B97B
:104040000098FDF73CFBF448F3E7206A01F01AFA08
:10405000471C384602F042FB2860216A3A4628682D
:1040600001F0AAF9A46824B90098FDF728FBEA48F2
:10407000DFE7606930600098FDF721FB0020D8E79A
:104080002DE9F84380460D461646994600200090DB
:104090000024002769464046FFF7AAFD10B1DE481C
:1040A000BDE8F883009884680CB1206A20B90098B4
:1040B000FDF705FBD848F3E7206A01F0E3F9471C58
:1040C000384602F00BFB2860216A3A46286801F066
:1040D00073F9A46824B90098FDF7F1FACE48DFE738
:1040E000D4E90601C6E900010098FDF7E8FA0020CE
:1040F000D6E72DE9F84F81460D4616461F460020AB
:1041000000900024804669464846FFF771FD10B1D3
:10411000C148BDE8F88F009884680CB1206A20B9C6
:104120000098FDF7CCFABC48F3E7206A01F0AAF941
:1041300000F10108404602F0D1FA2860216A4246A7
:10414000286801F039F9A46824B90098FDF7B7FA96
:10415000B148DEE72769384601F094F900F1010A19
:10416000504602F0BBFA3060384601F08BF900F19E
:10417000010A52463946306801F01EF90098FDF7F1
:104180009EFA0020C5E72DE9F04104460D4616468B
:104190001F464FF0FF38012C04D0032C0AD0042C0A
:1041A00018D10FE04B463A4631462846FFF742FD0C
:1041B000804610E04B463A4631462846FFF781FEDE
:1041C000804608E04B463A4631462846FFF721FF35
:1041D000804600E000BF00BF4046BDE8F0812DE909
:1041E000F04104460D4616461F464FF0FF38012C9D
:1041F00004D0032C0AD0042C18D10FE04B463A46C9
:1042000031462846FFF77BFD804610E04B463A4694
:1042100031462846FFF785FE804608E04B463A4681
:1042200031462846FFF72CFF804600E000BF00BF64
:104230004046BDE8F0812DE9F04104460D461646A2
:104240001F464FF0FF38012C04D0032C0AD0042C59
:1042500018D10FE04B463A4631462846FFF7B6FDE7
:10426000804610E04B463A4631462846FFF78BFE23
:10427000804608E04B463A4631462846FFF739FF6C
:10428000804600E000BF00BF4046BDE8F0813EB57B
:1042900004460D46002002900190009002A920469D
:1042A000FEF7D7FF10B16FF481603EBD01A9204633
:1042B000FEF738FF10B16FF48160F6E769462046DB
:1042C000FEF75EFF10B16FF48160EEE7BDF80020ED
:1042D00029462046FEF738FF10B16FF48160E4E70D
:1042E0000020E2E72DE9F05F05460F4690461C46A8
:1042F0004FF0000AD346D14600263846FEF7ACFB05
:104300008146484601F0BEF80646B6F5803F07D81C
:10431000B4F5401F04D841A13846FEF7DCFB28B9AC
:10432000484602F0B3F90020BDE8F09FFEF7AEFE6C
:10433000824680215046FEF7B6FFADB1284601F017
:10434000A1F8001DB11C0144201D01EB000B5946D2
:104350005046FFF740F880215046FEF7A4FF29465B
:104360005046FFF719F80BE0301D211D00EB010B43
:1043700059465046FFF72FF800215046FEF793FFAD
:1043800002215046FEF78FFF49465046FFF704F8DA
:10439000484602F07BF921465046FEF7D8FF2246F8
:1043A00041465046FEF79AFF5046BDE72DE9F047DB
:1043B00005460F4690461C464FF00009CA460026A7
:1043C000384601F05FF80646B6F5803F02D8B4F5EE
:1043D000401F02D90020BDE8F087FEF757FE814656
:1043E00080214846FEF75FFFE5B1284601F04AF814
:1043F000001DB11C0144201D01EB000A5146484636
:10440000FEF7E9FF80214846FEF74DFF2946484662
:10441000FEF7C2FF12E0000000FCFFFF64735F695B
:1044200064000000301D211D00EB010A5146484682
:10443000FEF7D1FF00214846FEF735FF022148462E
:10444000FEF731FF39464846FEF7A6FF21464846AB
:10445000FEF77DFF224641464846FEF73FFF4846AD
:10446000B9E72DE9F04706460D4617461C464FF0C2
:104470000008C146FEF70AFE804628190CB1062145
:1044800000E0022100EB0109B0214046FEF70BFFDE
:1044900049464046FEF79FFF29464046FEF73EFF4D
:1044A0002A4631464046FEF719FF44B121464046B0
:1044B000FEF74DFF224639464046FEF70FFF4046C5
:1044C000BDE8F08710B50024FEF7E0FD0446C021EA
:1044D0002046FEF7E8FE00212046FEF77CFF20463E
:1044E00010BDF0B502464FF0000C00230125002658
:1044F000012100240027D2F800C05368012B01D805
:104500000020F0BD644600BF042902D94FF0FF30FF
:10451000F7E7581E884201D20020F2E7491C641CCC
:10452000207800F07F0000FB0566ED01207800F0A8
:1045300080000028E8D18F199F4201D83846E0E773
:104540000020DEE770B5044600260025A16809B901
:10455000012100E000210846FEF794FD2046FFF708
:10456000C0FF0546002D01DC304670BDFEF78EFD14
:1045700006462A4630462168FEF7B0FE63685A1B9D
:1045800023685919184600F017FF6068401B6060E7
:104590003046EAE718B504460020009069462046F8
:1045A000FEF7C0FD9DF8000018BD1EB50446694623
:1045B0002046FEF74EFE08B1BF481EBD02A92046A8
:1045C000FEF7B0FD10B16FF47A70F6E701A920464E
:1045D000FEF7A8FD10B1B848801EEEE7D4E901212E
:1045E000914201D1012100E000210846FEF74AFD79
:1045F0009DF80400E1E7F8B504460D4616461F464F
:1046000069462046FEF725FE10B1AB480A38F8BDD2
:1046100029462046FEF7EAFD10B1A7480B38F6E719
:10462000286800F02FFF801C0099081A009031467E
:104630002046009AFEF788FD10B19F480C38E6E747
:1046400000983860D4E90121914201D1012100E0B4
:1046500000210846FEF716FD0020D8E77CB5064687
:104660000C46154601A93046FEF7F3FD10B19248FD
:1046700014387CBD69463046FEF754FD10B16FF426
:104680007F70F6E79DF80000802807D1214630466C
:10469000FEF7ACFD20B188481638EAE7002020601C
:1046A00029463046FEF73EFD10B183481738E0E753
:1046B0000020DEE7F8B504460D4617461E4669465B
:1046C0002046FEF793FD10B17B481A38F8BD0098DC
:1046D000FDF7FAFD2860009801F0D8FF286810B9AE
:1046E00075481B38F2E731462046FEF764FD10B1ED
:1046F00071481C38EAE7394620463268FEF724FD47
:1047000010B16D481D38E1E7D4E90121914201D192
:10471000012100E000210846FEF7B4FC0020D5E7A7
:104720002DE9F04104460F4616461D4639462046FF
:10473000FEF75CFD18B160481A38BDE8F0812946E3
:104740002046FEF738FD10B15B481C38F5E73146CE
:1047500020462A68FEF7F8FC10B157481D38ECE7F0
:10476000D4E90121914201D1012100E00021084654
:10477000FEF788FC0020E0E72DE9F843054689466E
:1047800016461F46DDF8208069462846FEF761FD83
:1047900018B149481F38BDE8F88331462846FEF76E
:1047A000EFFC04460CB12046F5E73288494628461E
:1047B000FEF7CAFC10B140481F38ECE741462846D6
:1047C000FEF7F9FC04460CB12046E4E739462846DA
:1047D000D8F80020FEF7B8FC10B137481F38DAE7E8
:1047E000D5E90121914201D1012100E000210846D3
:1047F000FEF748FC0020CEE718B50446694620467F
:10480000FEF727FD10B12C481E3818BDD4E9012150
:10481000914201D1012100E000210846FEF732FC5F
:104820000020F2E72DE9F04104460D460027B84686
:104830000026FEF72BFC0746284600F023FE06461E
:1048400080213846FEF72FFD9CB1204600F01AFE6D
:10485000001DB11C00EB010841463846FEF7BBFDC8
:1048600080213846FEF71FFD21463846FEF794FDAD
:1048700009E006F1040841463846FEF7ACFD002188
:104880003846FEF710FD05213846FEF70CFD294697
:104890003846FEF781FD3846BDE8F08170B5044624
:1048A0000D4629462046FEF7A1FC10B102481838F3
:1048B00070BD0020FCE7000018FCFFFF10B5B7A199
:1048C000BCA001F063F90422BCA1BE48FCF7A3FC24
:1048D0004FF47A70FCF780FDBBA1B6A001F056F949
:1048E000BFA1B4A001F052F90D22C4A1B548FCF754
:1048F00092FC4FF47A70FCF76FFDC4A1ADA001F0FB
:1049000045F9C9A1ABA001F041F9CEA1A9A001F0E0
:104910003DF9D2A1A7A001F039F90A22D6A1A948F0
:10492000FCF779FC4FF47A70FCF756FDD5A1A1A0F5
:1049300001F02CF9DAA19FA001F028F91D22DFA1D6
:10494000A048FCF768FC4FF4FA60FCF745FDE3A1D2
:1049500098A001F01BF9E8A196A001F017F9272211
:10496000EDA19848FCF757FC4FF4FA60FCF734FDD2
:10497000F3A190A001F00AF9F8A18EA001F006F9C8
:104980000E22FEA18F48FCF746FC4FF47A70FCF72C
:1049900023FDFEA187A001F0F9F810BD00B589B094
:1049A0001C2102A800F02FFDFCF7D6FC01A96846E7
:1049B00000F0C8FC9DF80010FBA001F0E7F89DF89E
:1049C0000410FCA001F0E2F8FD4800F07AFBFC487E
:1049D00000F077FB4FF48061FA4800F014FDFAA173
:1049E000F84800F01BFDF9A1F64800F017FDFA4861
:1049F0000278FAA102A801F0D9F802A9F14800F062
:104A00000DFDF7A1EF4800F009FDF6A1ED4800F01B
:104A100005FDF8480278F1A102A801F0C7F802A943
:104A2000E84800F0FBFCEEA1E64800F0F7FCF2A13C
:104A3000E44800F0F3FC9DF80020E8A102A801F092
:104A4000B5F802A9DF4800F0E9FCE5A1DD4800F077
:104A5000E5FCECA1DB4800F0E1FC9DF80420DFA1BF
:104A600002A801F0A3F802A9D64800F0D7FCDCA107
:104A7000D44800F0D3FC09B000BD2DE9F041044654
:104A80000E4615461CE04FF48061E14800F0BBFC87
:104A90000020E0490860204600F0F4FC07463A4652
:104AA00021464848FCF7B7FB2846FCF795FC314601
:104AB000D74800F0BFFC00B103E06420FCF78CFC99
:104AC000E1E700BFBDE8F0812DE9F04106460F4661
:104AD00014460025CE4800F0D5FC80464146CC481F
:104AE00000F091FC0020CB490860CBA131A001F07F
:104AF0004DF80C22D2A13348FCF78DFB00BF09E032
:104B00006420FCF769FCD2A1C14800F093FC00B11D
:104B100002E06D1CA542F3DB00BF39463046FEF7CC
:104B200082FCCC490860C820FCF756FCC9480068E4
:104B30004268C848006801682248FCF76CFB4FF4E3
:104B4000FA70FCF749FCC348FEF7B2FAC820FCF73C
:104B500043FC0322C0A11B48FCF75DFB3220FCF79D
:104B60003BFCBEA113A001F011F8BDE8F08170B5C7
:104B70000446002600254FF48061A54800F043FC60
:104B80000020A4490860BFA10AA000F0FFFF0E2288
:104B9000C7A10C48FCF73FFB00BFBCE15B4553508D
:104BA000383236365F496E69745D454E5445522041
:104BB00041542E0025730D0A0000000041540D0AD7
:104BC00000000000004400405B4553503832363648
:104BD0005F496E69745D455849542041542E000068
:104BE0005B455350383236365F496E69745D454EC9
:104BF0005445522043574D4F44452E0041542B43BA
:104C0000574D4F44453D310D0A0000005B45535060
:104C1000383236365F496E69745D455849542043D1
:104C2000574D4F44452E00005B45535038323636C1
:104C30005F496E69745D454E544552205253542E5F
:104C4000000000005B455350383236365F496E69CC
:104C5000745D45584954205253542E005B455350BF
:104C6000383236365F496E69745D454E5445522080
:104C700043494653522E000041542B434946535258
:104C80000D0A00005B455350383236365F496E6975
:104C9000745D455849542043494653522E00000044
:104CA0005B455350383236365F496E69745D454E08
:104CB0005445522043574A41502E000041542B4343
:104CC000574A41503D226D6D222C2232303138310D
:104CD000363879616E67220D0A0000005B4553503B
:104CE000383236365F496E69745D45584954204301
:104CF000574A41502E0000005B455350383236363B
:104D00005F496E69745D454E544552204349505386
:104D1000544152542E00000041542B4349505354E7
:104D20004152543D22544350222C223138332E32EA
:104D300033302E34302E3339222C3837360D0A00DA
:104D40005B455350383236365F496E69745D45585D
:104D5000495420434950534152542E005B4553500F
:104D6000383236365F496E69745D454E544552207F
:104D70004349504D4F44452E0000000041542B4301
:104D800049504D4F44453D310D0A00005B4553509D
:104D9000383236365F496E69745D45584954204350
:104DA00049504D4F44452E0077656E64753A202575
:104DB00064200000736964753A202564200D0A00A0
:104DC00080841E00600500202C3B00007265645F3B
:104DD00073746174752C0000340000202564000099
:104DE0003B000000677265656E5F73746174752CBB
:104DF000000000003500002074656D705F73746101
:104E000074752C0068756D5F73746174752C000087
:104E1000600000202C0000205B45535038323636AD
:104E20005F4465764C696E6B5D454E544552206417
:104E30006576696365206C696E6B2E2E2E0000000E
:104E400041542B43495053454E440D0A0000000085
:104E50003E000000440000202B2B2B005B455350EC
:104E6000383236365F4465764C696E6B5D4558491D
:104E70005420646576696365206C696E6B2E2E2EF6
:104E8000000000005B455350383236365F4368659A
:104E9000636B5374617475735D454E544552206362
:104EA0006865636B207374617475732E2E2E000019
:104EB00041542B4349505354415455530D0A00005B
:104EC0006420FCF789FA3FA1414800F0B3FA10B121
:104ED0006FF0030621E03FA13D4800F0ABFA08B1B6
:104EE00000261AE03EA13A4800F0A4FA10B16FF093
:104EF000010612E03DA1364800F09CFA10B16FF0B7
:104F000004060AE03CA1324800F094FA10B14FF0D8
:104F1000FF3602E06D1CA542D2DB00BF38A1AFF224
:104F20006C3000F033FE304670BD10B500244FF4F5
:104F30008061274800F067FA00203C4908603CA1E6
:104F4000AFF2903000F022FE0C22AFF20C1141487B
:104F5000FCF761F900BF0AE06420FCF73DFAAFF20C
:104F600010111B4800F066FA00B102E0641C282C06
:104F7000F2DB00BFFFF712FD374938A0FFF752FC04
:104F800039490860084600684268084600680168B8
:104F90003048FCF740F93448FEF78AF84FF4FA70CD
:104FA000FCF71AFA0322AFF250112A48FCF733F942
:104FB000C820FCF711FA2DA1AFF2084000F0E6FD81
:104FC00010BD00005354415455533A3400000000C2
:104FD000600000205354415455533A330000000000
:104FE0005354415455533A32000000005354415435
:104FF00055533A35000000004552524F5200000010
:105000005B455350383236365F436865636B537483
:10501000617475735D4558495420636865636B20FE
:105020007374617475732E2E2E0000002C00002006
:105030005B455350383236365F53656E6444617455
:105040005D454E5445522053656E64646174612E13
:105050002E2E000000440040600500203239373118
:105060003239383200000000440000205B455350C4
:10507000383236365F53656E644461745D45584915
:10508000542053656E64646174612E2E2E000000FE
:1050900010B56FF00400FBF73EFA2E4800682E4969
:1050A000B0FBF1F02D4908700846007800EB400194
:1050B000C1EBC0104FF6FF7101EAC000284908801B
:1050C00010BD0146254A12784A434FF0E0235A6149
:1050D00000229A611A46126942F001021A6100BF69
:1050E0004FF0E022106900F001021AB100F48032A2
:1050F000002AF5D04FF0E022126922F001024FF0B1
:10510000E0231A6100229A6170470146144A12880E
:105110004A434FF0E0235A6100229A611A4612690D
:1051200042F001021A6100BF4FF0E022106900F066
:1051300001021AB100F48032002AF5D04FF0E022CB
:10514000126922F001024FF0E0231A6100229A61F5
:10515000704700000000002000127A004800002084
:105160004A000020014600BF704700BF2B4A12884A
:1051700002F04002002AF9D0C2B2284B1B1D1A804F
:10518000704700B587B0012144F20400FBF78CFDA5
:105190004FF40070ADF8180003208DF81A001820A5
:1051A0008DF81B0006A91E48FBF7C2FA4FF4806079
:1051B000ADF8180004208DF81B0006A91848FBF76D
:1051C000B7FA25208DF8040003208DF805008DF82E
:1051D000060001208DF8070001A8FBF752F94FF4F3
:1051E000E13002900020ADF80C00ADF80E00ADF8F3
:1051F0001000ADF814000C20ADF8120002A9074809
:10520000FBF7F9FD012240F225510448FBF78BFE24
:1052100001210248FBF77BFE07B000BD00380140CA
:105220000008014008B51020ADF8000004208DF8FA
:10523000030069465C48FBF77BFA08BD08B51020FF
:10524000ADF8000003208DF8020010208DF8030057
:1052500069465548FBF76CFA08BD10B5FFF7EEFF3D
:1052600010215148FBF713FB1420FFF74EFF1021CC
:105270004D48FBF70AFB1E20FFF723FF10BD10B5BA
:105280000024FFF7CFFF04E0601CC4B20120FFF749
:1052900018FF10214448FBF7DEFA012801D1642CE5
:1052A000F2DB642C01DB012010BD002404E0601C53
:1052B000C4B20120FFF705FF10213B48FBF7CBFAF2
:1052C00008B9642CF3DB642C01DB0120ECE700203F
:1052D000EAE710B5002404E0601CC4B20120FFF727
:1052E000F0FE10213048FBF7B6FA012801D1642CFA
:1052F000F2DB002404E0601CC4B20120FFF7E1FEF1
:1053000010212948FBF7A7FA08B9642CF3DB282001
:10531000FFF7D7FE10212448FBF79DFA012800D1A2
:1053200010BD0020FCE770B50024002506E06006F3
:10533000040EFFF7CEFF0443681CC5B2082DF6DB50
:10534000204670BD7CB505460E46FFF786FFFFF789
:1053500096FFF8B9002405E0FFF7E5FF0DF804001B
:10536000601CC4B2052CF7DB9DF800009DF801100D
:1053700008449DF8021008449DF8031008449DF865
:105380000410884208D19DF8000030709DF802009A
:10539000287001E001207CBD0020FCE710B5FFF77C
:1053A0005CFFFFF76CFF10BD00180140A0F1410148
:1053B000192900D82030704710B5431A934209D2FA
:1053C0008318881803E010F8011D03F8011D521E10
:1053D000F9D210BD40EA01039B0703D009E008C9D8
:1053E000121F08C0042AFAD203E011F8013B00F8AA
:1053F000013B521EF9D210BDD2B201E000F8012BE0
:10540000491EFBD270470022F6E710B513460A4644
:1054100004461946FFF7F0FF204610BD421E12F861
:10542000013F002BFBD111F8013B02F8013B002B9F
:10543000F9D1704730B505462A460B4612F8010BE4
:1054400013F8014B08B1A042F8D01CB1002802D0DB
:105450006D1CF1E7284630BD10B5044604E00B781A
:1054600000F8013B03B1491C521EF8D2204610BD82
:10547000CAB2401E10F8011F8A4202D00029F9D199
:1054800000207047421C10F8011B0029FBD1801A34
:105490007047034611F8012B00F8012B002AF9D1BF
:1054A0001846704730B505460020034600E05B1CF7
:1054B000934205D2EC5CC85C201A01D1002CF6D1D5
:1054C00030BD2DE9FE4F804681EA0300C00F0C4637
:1054D000009021F0004123F00045B8EB0200A94103
:1054E00005D24046214690461C460B46024623F014
:1054F0000040104347D0270DC7F30A00C3F30A51F9
:105500000290401A019040286BDAC3F3130040F474
:10551000801B0098924620B10023D2EB030A63EB74
:105520000B0B01985946C0F14002504600F09DF91E
:1055300006460D4650465946019A00F0B5F910EB63
:1055400008006141002487EA115284EAE7731A4394
:1055500040D0009A62B3019A012A4FEA075215DC43
:10556000001B61EB02014FF0004202EA0752CDE955
:105570000042001C41F5801132462B4600F0B5F97F
:1055800003B0BDE8F08F40462146F9E7001B61EB10
:105590000201001C41F5801300185B412018A2F5A0
:1055A000001747EB030140EAD570B6196D4111E0D1
:1055B0006D084FEA360645EAC0754FEA0752001BF0
:1055C00061EB0201001C41F5801149084FEA3000EF
:1055D0000019514132462B4603B0BDE8F04F00F0B0
:1055E00075B90098012240000023D0EB020263EB62
:1055F000E073009821464FEAE074B8EB000061EBDD
:105600000401E9E783F000435BE781F0004158E7DC
:105610002DE9FE4F81EA030404F0004421F000412B
:1056200000944FF0000B23F0004350EA01045ED0D9
:1056300052EA03045BD0C3F30A54C1F30A552C4465
:10564000A4F2F3340194A0FB0254C1F3130141F41A
:105650008011C3F3130343F4801301FB024400FBE6
:10566000034E840A970A44EA815447EA8357A4FB0D
:10567000076802958D0A05FB07854FEA932C04FB0A
:105680000C542705029D4FEA065847EA1637B5EB3A
:1056900008056EEB070C870E920E47EA811742EA67
:1056A0008312A7FB0201B6EB0B0164EB00042B0D88
:1056B00043EA0C335E1844EB1C50DA465146E7FBD4
:1056C0000201C5F313044FEA0B3343EA14534FEAC4
:1056D0000432019C43EA0603A4F10C040294009CEA
:1056E000CDE900B400F001F903B0BDE8F08F00206F
:1056F0000146F9E70EB5C10F80EAE0700844CA0719
:10570000002140F233438DE80E000A460B4600F0BC
:10571000ECF803B000BD70B5C1F30A5201F00045CA
:105720000024C1F3130140F2FF3341F480119A4287
:1057300001DA002070BD40F233439A42A2F23342B4
:1057400003DC524200F0A0F800E090402C43F1D07E
:10575000404270BD00F0004230F000400AD0C10D60
:1057600001F56071C0F3160042EA0151C20840071A
:1057700011437047002001467047000030B5041EF9
:1057800071F1000404DB4FF00044404264EB01017E
:10579000141E73F1000405DB1C464FF00043524217
:1057A00063EB04038B4208BF824230BD30B5041E58
:1057B00071F1000404DB4FF00044404264EB01014E
:1057C000141E73F1000405DB1C464FF000435242E7
:1057D00063EB0403994208BF904230BD30B50B46DD
:1057E000014600202022012409E021FA02F59D4211
:1057F00005D303FA02F5491B04FA02F52844151EE5
:10580000A2F10102F1DC30BD2DE9F05F0546002078
:1058100092469B4688460646814640241BE0284621
:1058200041464746224600F02FF853465A46C01AD2
:10583000914110D311461846224600F016F82D1A51
:1058400067EB01084F4622460120002100F00DF8C9
:1058500017EB00094E41201EA4F10104DFDC48468D
:1058600031462A464346BDE8F09F202A04DB203A11
:1058700000FA02F1002070479140C2F1200320FAA3
:1058800003F3194390407047202A04DB203A21FAA1
:1058900002F00021704721FA02F3D040C2F1200249
:1058A0009140084319467047202A06DBCB17203A5F
:1058B00041FA02F043EAE07306E041FA02F3D04015
:1058C000C2F12002914008431946704710B5141EDA
:1058D00073F1000408DA401C41F1000192185B41A9
:1058E0001A4301D120F0010010BD2DE9F04D924680
:1058F0009B4611B1B1FA81F202E0B0FA80F2203297
:105900009046FFF7B2FF04460F4640EA0A0041EA1C
:105910000B0153465A46084313D0114653EA01007F
:1059200019D0C8F140025046FFF7AEFF05460E46BB
:10593000504659464246FFF798FF084305D00120DC
:1059400004E020463946BDE8F08D0020054346EAD4
:10595000E0762C4337430A986305E40AA0EB08007D
:105960000022FD0A44EA47540A3002D500200146CD
:10597000E9E7010510196941DDE9084500196941A8
:10598000BDE8F04DA2E72DE9F04D81EA030404F0F3
:10599000004B21F0004514464FF0000A23F000416F
:1059A00050EA050220D054EA01021DD0C5F30A577F
:1059B0000246C5F31303C1F31300C1F30A5640F4C2
:1059C000801543F48013A7EB0608101BD64608F297
:1059D000FD3873EB050002D308F1010801E09218CD
:1059E0005B41B8F1000F03DA00200146BDE8F08DFD
:1059F00000204FF48011064684460EE0171B73EB1F
:105A0000050705D3121B63EB050306434CEA010CA3
:105A100049084FEA300092185B4150EA0107EDD186
:105A200052EA030012D082EA040083EA0501084327
:105A300005D0101BAB4106D20122002306E0002254
:105A40004FF0004302E06FF0010253101AEB060022
:105A50004CEB085110EB0A0041EB0B01BDE8F04D97
:105A6000FFF734BF70B521F0004303430CD0C1F3FE
:105A70000A550024D5EB040564EB0403D617AD1AD0
:105A8000B34102DB0020014670BD201841EB0251FA
:105A900070BDC1F30A52C1F3130140F2FF3341F468
:105AA00080119A4202DA00200146704740F23343E7
:105AB0009A42A2F2334202DC5242FFF7E5BEFFF700
:105AC000D4BE0000064C074D06E0E06840F001033C
:105AD00094E8070098471034AC42F6D3FAF72CFB51
